:100000000C9436000C9440000C9440000C9440007A
:100010000C9440000C9440000C9440000C94400060
:100020000C9440000C9440000C9440000C94400050
:100030000C9440000C9440000C9440000C94400040
:100040000C9440000C9440000C9440000C94400030
:100050000C9440000C9440000C9440000C94400020
:100060000C9440000C9440000C94400011241FBEDE
:10007000CFEFD4E0DEBFCDBF0E9442000C944D0014
:100080000C940000CF93DF9300D01F92CDB7DEB762
:0E00900089E389831B821A82FFCFF894FFCF89
:00000001FF
